:100000000C9407010C9424010C94FD090C941F0A14
:100010000C9424010C9424010C9424010C942401CC
:100020000C9424010C9424010C94410A0C94240196
:100030000C9424010C94BC030C9414040C9424011F
:100040000C9473080C9424010C9424010C94240146
:100050000C9424010F323232321817161D01201F62
:100060001E0807323232320E323232320D090A3273
:10007000282726212C323232321C131211011B1A6E
:10008000190201323232322B3232323230312932DD
:100090002324250B32320C320603050410151422DA
:1000A0002F2E2D2A32323232323232323232323244
:1000B00032323232F35BA2DD20DF2096205B0082F9
:1000C000005B009600DF82DDD35B0000FFFFFFFFD7
:1000D000000000327896C8FF00FF640000C80002EC
:1000E00002010106010201060202000000020601EF
:1000F00001010102010101060000000000000006EC
:1001000001010602060606060600000606060001B4
:1001100001010102010201020200000000000001D1
:100120000101010201010102000000000000000DB8
:100130000C1A1800190E1C00090B1A18190A0003D2
:100140000E0D020401041D00010D0E0304021D002A
:1001500012110005000000000011120000001C1325
:100160000F080707060F1E10080F050607131E0CC1
:100170000B0A090605101F02100A0B0C08091F02C2
:100180000202020202020200010E090D0C05030622
:100190000008080000010102080908090B00020616
:1001A0000E1E3E7EFEFF000103435357D7DFFF4084
:1001B00050FF0000000000000000000000000000F0
:1001C00000000000CF825BD396D5DD83DFD79FDCB4
:1001D0004DDA5D1D9E4C981F5CCE8F010502030217
:1001E00005020600060204010600050201000201E4
:1001F00004000402020003000000010102020702E1
:1002000009020A0208010001030101020000112491
:100210001FBECFE5D8E0DEBFCDBF10E0A0E6B0E066
:10022000E2E2FEE102C005900D92AE36B107D9F7C9
:1002300011E0AEE6B0E001C01D92AB3EB107E1F7C0
:100240000E94F0050C940F0F0C940000CF93DF93E5
:1002500090916E0080916F00981771F180917200FB
:10026000882351F5892F8F5F80936E00833211F4BC
:1002700010926E0080916E0090E0DC01AA0FBB1F0F
:10028000A80FB91FAF5EBE4FED0149912EE031E0DE
:10029000F90141938881808312968C91F9013296FD
:1002A000808381E080937200F90180818CB9EAE259
:1002B000F0E0808180628083DF91CF910895582F94
:1002C000633109F097C1803909F0C8C0809173008B
:1002D000813009F061C010927300EAE2F0E08081A1
:1002E0008F77808320917100822F90E0FC01EE0FC8
:1002F000FF1FE80FF91FE658FE4FDF0180E98D93DD
:100300001C92329610822F5F233269F4AAE7B1E083
:10031000FD01819383E1808312968FE78C9381E0C6
:100320008093710019C0822F90E0FC01EE0FFF1F37
:10033000E80FF91FE658FE4FDF0180E98D9383E156
:100340008C9332968FE78083822F8F5F809371002A
:10035000833211F410927100EAE2F0E0808180684B
:10036000808380916F008F5F80936F00833211F4E0
:1003700010926F0080916F0090E0FC01EE0FFF1F64
:10038000E80FF91FEF5EFE4FDF0180E98D9383E1F7
:100390008C933296108262C081E080937300EAE20F
:1003A000F0E080818F77808320917100822F90E030
:1003B000FC01EE0FFF1FE80FF91FE658FE4FDF01AB
:1003C00080E98D931C9232968FE780832F5F2332D2
:1003D00069F4AAE7B1E0FD0180E9819383E18083BC
:1003E00012961C9281E08093710018C0822F90E0D9
:1003F000FC01EE0FFF1FE80FF91FE658FE4FDF016B
:1004000080E98D9383E18C9332961082822F8F5FE7
:1004100080937100833211F410927100EAE2F0E0EF
:1004200080818068808380916F008F5F80936F00F0
:10043000833211F410926F0080916F0090E0FC0104
:10044000EE0FFF1FE80FF91FEF5EFE4FDF0180E99F
:100450008D9383E18C9332968FE78083513909F035
:1004600001C180917400813009F061C01092740064
:10047000EAE2F0E080818F77808320917100822F03
:1004800090E0FC01EE0FFF1FE80FF91FE658FE4F4A
:10049000DF0181E98D931C92329610822F5F233207
:1004A00069F4AAE7B1E0FD01819383E180831296AC
:1004B0008FE78C9381E08093710019C0822F90E0C8
:1004C000FC01EE0FFF1FE80FF91FE658FE4FDF019A
:1004D00081E98D9383E18C9332968FE78083822F1D
:1004E0008F5F80937100833211F410927100EAE201
:1004F000F0E080818068808380916F008F5F8093BF
:100500006F00833211F410926F0080916F0090E0C1
:10051000FC01EE0FFF1FE80FF91FEF5EFE4FDF013A
:1005200081E98D9383E18C9332961082089581E066
:1005300080937400EAE2F0E080818F7780832091DD
:100540007100822F90E0FC01EE0FFF1FE80FF91FF2
:10055000E658FE4FDF0181E98D931C9232968FE7BA
:1005600080832F5F233269F4AAE7B1E0FD0181E9BE
:10057000819383E1808312961C9281E080937100C5
:1005800018C0822F90E0FC01EE0FFF1FE80FF91F4B
:10059000E658FE4FDF0181E98D9383E18C9332961B
:1005A0001082822F8F5F80937100833211F410923A
:1005B0007100EAE2F0E080818068808380916F00C2
:1005C0008F5F80936F00833211F410926F008091DF
:1005D0006F0090E0FC01EE0FFF1FE80FF91FEF5EC8
:1005E000FE4FDF0181E98D9383E18C9332968FE793
:1005F0008083089590E09C012F70307021153105A3
:1006000041F480917300882321F0693069F033E070
:100610000CC02130310541F480917400882321F011
:10062000693011F034E001C0352F80916F008F5F89
:1006300080936F00833211F410926F0080916F00ED
:1006400090E0252F207F232BDC01AA0FBB1FA80FD2
:10065000B91FAF5EBE4FFD012193608312964C938C
:100660000E942601089584ED8ABB88EB87BB8FEF3B
:1006700084BB87EF81BB80E687B98FE886B910BE5F
:10068000EBE5F0E08081806A8083E5E5F0E0808141
:100690008C608083E4E5F0E080818064808381E584
:1006A0008DB9E5E4F0E0808189668083EFE4F0E0D5
:1006B0008081816A8083EEE4F0E0808189608083BC
:1006C000E3E5F0E080818D608083E9E5F0E0808102
:1006D000836080838EE18CBF87E289B9E0E4F0E03B
:1006E000108288E98AB986E880832EE088E190E06C
:1006F0000FB6F894A89581BD0FBE21BD2091710061
:10070000822F90E0FC01EE0FFF1FE80FF91FE65863
:10071000FE4FDF0180E98D9383E18C9332968FE762
:1007200080832F5F233271F4AAE7B1E0FD0181E9F4
:10073000819383E1808312968FE78C9381E080938D
:1007400071000895822F90E0FC01EE0FFF1FE80F6B
:10075000F91FE658FE4FDF0181E98D9383E18C9309
:1007600032968FE78083822F8F5F80937100833270
:1007700011F41092710008951F920F920FB60F920C
:1007800011242F938F939F93EF93FF938091760083
:10079000882361F48091710090E02CB1FC01EE0F90
:1007A000FF1FE80FF91FE658FE4F20838091760067
:1007B000813061F48091710090E02CB1FC01EE0F6A
:1007C000FF1FE80FF91FE558FE4F20838091760048
:1007D000823061F48091710090E02CB1FC01EE0F49
:1007E000FF1FE80FF91FE458FE4F20838091760029
:1007F0008F5F8093760080917600833058F010925E
:100800007600809171008F5F80937100833211F4C4
:1008100010927100FF91EF919F918F912F910F9006
:100820000FBE0F901F9018951F920F920FB60F9248
:1008300011248F939F93EF93FF93809172008823ED
:10084000C1F090917500933050F0109275001092A5
:100850007200EAE2F0E080818F7D80830AC0EEE0E2
:10086000F1E0E90FF11D80818CB9892F8F5F8093B2
:100870007500FF91EF919F918F910F900FBE0F9098
:100880001F9018951F93CF93DF93909170008091E4
:100890007100981709F4A0C180917A008A3049F05C
:1008A0008F5F80937A008A3021F488E890E00E947C
:1008B000C70E20917000822F90E0DC01AA0FBB1FB1
:1008C000A80FB91FA658BE4FFD0151914081129645
:1008D0001C912F5F20937000233211F4109270004E
:1008E000852F90E0BC016F707070633071050CF063
:1008F000E0C0433208F0DDC01123A1F5FB01EE0F8B
:10090000FF1FE295F295F07FFE27E07FFE27E40FC0
:10091000F11DEC5AFF4F8491823308F0CAC0E82FD2
:10092000E695E695E695F0E09F01220F331F220F32
:10093000331F220F331F90E0821B930B21E030E026
:1009400002C0220F331F8A95E2F72095E857FF4F28
:10095000DF0154968C9182238C937B96808128238F
:100960002083A7C01032C1F5E52FF0E0EF70F070E2
:10097000EE0FFF1FE295F295F07FFE27E07FFE2746
:10098000E40FF11DEC5AFF4F8491823308F091C0BF
:10099000E82FE695E695E695F0E09F01220F331FDC
:1009A000220F331F220F331F90E0821B930B21E095
:1009B00030E002C0220F331F8A95E2F7E857FF4F5D
:1009C000DF015496822F80959C9189238C937B968E
:1009D0008081282B20836DC01034B1F5E52FF0E025
:1009E000EF70F070EE0FFF1FE295F295F07FFE279B
:1009F000E07FFE27E40FF11DEC5AFF4F8491823314
:100A000008F057C0E82FE695E695E695F0E09F01DF
:100A1000220F331F220F331F220F331F90E0821B40
:100A2000930B21E030E002C0220F331F8A95E2F7DA
:100A3000E857FF4FDF0154968C91822B8C937B9665
:100A40008081282B208335C0E52FF0E0EF70F07017
:100A5000EE0FFF1FE295F295F07FFE27E07FFE2765
:100A6000E40FF11DEC5AFF4F2491223310F5E22FD1
:100A7000E695E695E695F0E0CF01880F991F880F7F
:100A8000991F880F991F30E0281B390B81E090E0F7
:100A900002C0880F991F2A95E2F7E857FF4FDF0140
:100AA00054962C91282B2C937B9680952081822321
:100AB00080836330710509F060C0442311F0423037
:100AC00031F4812F64E10E94EF0E90938000413059
:100AD00011F0433031F4812F64E10E94EF0E9093C6
:100AE0008100443011F04630C1F4812F6BE00E9448
:100AF000EF0E892F90E0880F991F24EB30E0F90169
:100B0000E80FF91FE491A7E9B0E0EC930196F90131
:100B1000E80FF91FE4911296EC93453011F047303D
:100B2000C1F4812F6BE00E94EF0E892F90E0880FB7
:100B3000991F24EB30E0F901E80FF91FE491A8E9CF
:100B4000B0E0EC930196F901E80FF91FE4911296D9
:100B5000EC93483011F04A3031F4812F6AE00E9462
:100B6000EF0E90938200493011F04B3031F4812F19
:100B70006AE00E94EF0E90938300852F90E08F70C3
:100B800090700497029740F550E0CAECD0E0812FB6
:100B900067E00E94EF0E292F30E0FE01E20FF31F05
:100BA000E491DA01AA0FBB1FA40FB51FA857BF4FCE
:100BB0009296EC939297C9010796FE01E80FF91FF0
:100BC000E4919396EC939397225F3F4FFE01E20FDF
:100BD000F31FE4919496EC93DF91CF911F910895C8
:100BE0002F923F924F925F926F927F928F929F923D
:100BF000AF92BF92CF92DF92EF92FF920F931F932B
:100C0000CF93DF930E94330388E890E00E94C306ED
:100C10007894E6E2F0E08081806480830F2EF8E82B
:100C20008F2EF0E09F2EF02D0F2EF0E84F2EF0E0EB
:100C30005F2EF02D0F2EFCE06F2EF1E07F2EF02DB9
:100C40000F2EFDE02F2EF1E03F2EF02DEE24C1E31C
:100C5000D0E002E310E00F2EFCE0AF2EBB24F02D1D
:100C60000F2EF0E3CF2EDD24F02DA895C4010E94B5
:100C70001807C201B4010E94DB0A0E9442040E94CC
:100C8000260180917800909179009C012F5F3F4F61
:100C900030937900209378002035310548F0F30136
:100CA0008081882319F48FEF808302C0F3011082C2
:100CB000203A310521F48FEFF101808309C02A3AEF
:100CC000310531F41092790010927800F101108210
:100CD0002E2DFE2C3E2D888180648883F801808132
:100CE0008F7B808388818F7B8883888184608883E1
:100CF00080818B7F808388818B7F8883C50101976A
:100D0000F1F7F601808186FF3F5FF601808182FF67
:100D1000F3942F5F2233F9F6332369F08091770043
:100D200080FD15C081608093770081E960E24FE724
:100D30000E945F010CC08091770080FF08C08E7F09
:100D40008093770081E860E24FE70E945F01FF2017
:100D500069F08091770081FD88CF82608093770071
:100D600080E960E24FE70E945F017FCF80917700CA
:100D700081FF7BCF8D7F8093770080E860E24FE733
:100D80000E945F0172CFDC01DB961C921E92DA9703
:100D9000DD961C921E92DC97DF961C921E92DE97C7
:100DA000FC01E05CFF4F11821082FC01EE5BFF4F03
:100DB0001182108280E090E0FD01E80FF91F10829F
:100DC000019684319105C1F7FD01B29680E012824F
:100DD000118210828F5F33968830C9F7FD0180E061
:100DE000138E148A8F5F31968730D1F7089520E0F3
:100DF00030E04FEFFC01E20FF31F40832F5F3F4FC6
:100E000024313105B9F7FC01B29620E03FEF32837F
:100E1000318330832F5F33962830C9F7FC0180E09F
:100E20009FEF938F948B8F5F31968730D1F7089522
:100E3000BC0180916000882309F0A5C080917C00EE
:100E40008F5F80937C00883028F010927C0020E037
:100E500030E00BC0282F30E080FF07C0E5E3F0E072
:100E6000808182608083E08106C0E5E3F0E08081DC
:100E70008D7F8083E08121FF07C0E5E3F0E0808182
:100E800080628083E08106C0E5E3F0E080818F7DB1
:100E90008083E08122FF07C0E5E3F0E08081806885
:100EA0008083E08106C0E5E3F0E080818F77808376
:100EB000E081C901880F991F820F931FFB01E80F82
:100EC000F91F82A190E099BD88BD83A183BD84A153
:100ED00090E09BBD8ABD80917B008031A1F4809120
:100EE000E7019091E801FB01EB58FF4F9295829545
:100EF0008F7089279F708927808310927B001092C2
:100F0000E8011092E7012091E5013091E60180911E
:100F10007C00FB01E80FF11DE35AFF4F2083209175
:100F2000E3013091E40180917C00FB01E80FF11DA9
:100F3000EB59FF4F20832091E9013091EA01809124
:100F40007C00FB01E80FF11DE359FF4F2083109255
:100F5000EA011092E9018091E9019091EA019093F0
:100F6000E4018093E3018091E3019091E401909387
:100F7000E6018093E50184E080936000E6E2F0E022
:100F8000808180648083E8E3F0E08081877F8083D4
:100F900000000000808188608083E5E3F0E08081CC
:100FA000827A808380917D0090E04D96880F991F12
:100FB000FB01E80FF91F1182108280917D00482FFC
:100FC00050E0FB01E40FF51F828580958FB9EEE2BA
:100FD000F0E080818823ECF7AFE2B0E02C91CA0109
:100FE0004D96880F991FFB01E80FF91F30E08081B3
:100FF0009181822B932B9183808380917D00482F58
:1010000050E0FB01E40FF51F87858C93EEE2F0E0E2
:1010100080818823ECF7AFE2B0E02C91CA014D96B5
:10102000880F991FFB01E80FF91F922F80E02081A4
:101030003181822B932B9183808390917D00292F86
:1010400030E0FB01E20FF31F858180958C93EEE287
:10105000F0E080818823ECF7FB01E20FF31F808131
:1010600080958FB9EEE2F0E080818823ECF7892F3C
:101070008F5F80937D00853010F010927D00E8E353
:10108000F0E08081806180830000000080818F7E9D
:10109000808390917D00992331F4E5E3F0E0808135
:1010A0008160808318C0913031F4E5E3F0E0808105
:1010B000846080830895923031F4E5E3F0E080812C
:1010C000886080830895933031F4E5E3F0E0808117
:1010D000806180830895943029F4E5E3F0E0808115
:1010E0008064808308951F920F920FB60F9211248F
:1010F0002F933F938F939F93EF93FF9330916000D3
:10110000332309F445C0323039F1333018F431302B
:10111000B1F52CC03330B1F0343089F525B1809170
:10112000E7019091E8012695820F911D9093E801C7
:101130008093E70185E687B980917B008F5F80937C
:101140007B001DC085B1869590E09093E601809369
:10115000E50181E687B913C085B1869590E090934B
:10116000EA018093E90183E687B909C085B18695D4
:1011700090E09093E4018093E30180E687B9832FA8
:10118000815080936000E6E2F0E08081806480839B
:10119000FF91EF919F918F913F912F910F900FBEF3
:1011A0000F901F901895282F6623C1F090E0EBE375
:1011B000F0E0222324F080818B7F808303C0808134
:1011C0008460808380818F7E808300008081806145
:1011D00080839F5F961710F4220FEBCF0895282F7E
:1011E0006623C1F090E0EBE3F0E020FD04C08081D5
:1011F0008B7F808303C080818460808380818F7E29
:10120000808300008081806180839F5F961710F447
:101210002695EBCF0895FF920F931F93F82E0BE3C3
:1012200010E0F80180818F7B808380E864E00E9479
:10123000D3088F2D68E00E94D308F8018081806474
:1012400080831F910F91FF900895EF92FF920F936B
:101250001F93E62E0BE310E0F80190819F7B9083B3
:10126000F82EFF0CFF0CFF0C80EA63E00E94D3080D
:101270008F2D845066E00E94D3088E2D68E00E9476
:10128000EF08F8018081806480831F910F91FF90A7
:10129000EF9008951F93EBE3F0E080818F7B8083D4
:1012A00080EA63E00E94D30810E0812F60E00E9492
:1012B00025091F5F1131C9F7EBE3F0E080818064FD
:1012C00080831F9108950F931F93082FEBE3F0E0A5
:1012D00080818F7B8083E1E6F0E0E60FF11D1081D5
:1012E0004111106880EA63E00E94D308802F880FC4
:1012F000880F880F845066E00E94D308812F68E031
:101300000E94EF08EBE3F0E08081806480831F910E
:101310000F910895FF920F931F93182F362F042FCC
:10132000F22E64E60E94EF0E682F832F40E00E94A9
:101330006309812F64E60E94EF0E892F6AE00E9404
:10134000EF0E682F802F40E00E946309812F6AE032
:101350000E94EF0E8F2D692F41E00E9463091F91BB
:101360000F91FF900895CF92DF92EF92FF920F932B
:101370001F936C01362F142FF22E60E177E20E944A
:10138000FB0E832F40E00E946309C60160E177E213
:101390000E94FB0E68EE73E00E94FB0E812F40E07E
:1013A0000E946309C60168EE73E00E94FB0E64E6CA
:1013B00070E00E94FB0E8F2D40E00E946309C60181
:1013C00064E670E00E94FB0E6AE070E00E94FB0E93
:1013D000802F40E00E946309C6016AE070E00E942D
:1013E000FB0E682F8E2D41E00E9463091F910F9123
:1013F000FF90EF90DF90CF9008951F920F920FB65D
:101400000F9211248F93EF93FF93B19906C0EEE7EB
:10141000F0E080818F5F808305C0EEE7F0E080819F
:1014200081508083EAE5F0E080818F778083FF91AF
:10143000EF918F910F900FBE0F901F9018951F92F4
:101440000F920FB60F9211248F93EF93FF93B09BDF
:1014500006C0EFE7F0E080818F5F808305C0EFE793
:10146000F0E0808181508083EAE5F0E080818F7D2B
:101470008083FF91EF918F910F900FBE0F901F907F
:1014800018951F920F920FB60F9211249F92AF9250
:10149000BF92CF92DF92EF92FF920F931F932F9301
:1014A0003F934F935F936F937F938F939F93AF93EC
:1014B000BF93CF93DF93EF93FF93CBE6D0E0EE247F
:1014C000FF240F2EFEE7CF2EF0E0DF2EF02D0F2EA3
:1014D000F4E6BF2EF02D0F2EF1EC9F2EF02D0F2EE7
:1014E000FFE3AF2EF02D8701F601EE0DFF1D808189
:1014F000882371F1F601EE0DFF1D8081803424F008
:10150000F601EE0DFF1DA082F601E00FF11F8081B4
:10151000813C24F4F601E00FF11F9082EE2051F49B
:10152000F601E00FF11F4081405C80EB67E00E9414
:101530005F0109C0F601E00FF11F4081405C81EBC3
:1015400067E00E945F018881843639F418820AC0FE
:101550008881843639F08F5F8883888185508F3504
:1015600008F4B882F601E00FF11F10820894E11C24
:10157000F11C219682E0E816F10409F0B4CFFF9146
:10158000EF91DF91CF91BF91AF919F918F917F911B
:101590006F915F914F913F912F911F910F91FF900C
:1015A000EF90DF90CF90BF90AF909F900F900FBEC5
:1015B0000F901F9018952F923F924F925F926F92CB
:1015C0007F928F929F92AF92BF92CF92DF92EF92D3
:1015D000FF920F931F93DF93CF9300D00F92CDB75D
:1015E000DEB72C017B010F2EF4E4AF2EBB24F02DCF
:1015F000A60EB71E0BED11E00F2EFDE0CF2EF2E090
:10160000DF2EF02DD50159964C915997842F90E0FB
:101610002C91821B910999231CF4909581959F4FE1
:10162000039774F0F80184913196E4918F7080559E
:101630006E2F0E945F01D50159968C9159978C931A
:101640000894A11CB11C0E5F1F4F0C151D05D1F68F
:1016500040E050E00F2EFFE7CF2EF1E0DF2EF02D1F
:1016600009E811E061E070E0D701A858BF4FF6012A
:10167000E40FF51F8491F801E40FF51FE4919B013D
:1016800002C0220F331FEA95E2F790E04D96880FD3
:10169000991FF701E80FF91F8081918128233923D1
:1016A000232B81F0CB01042E02C0880F991F0A94CE
:1016B000E2F72D913C911197822B932B11969C93DD
:1016C0008E9311C0CB01042E02C0880F991F0A947B
:1016D000E2F7809590952D913C9111978223932369
:1016E00011969C938E934F5F5F4F4A30510509F0DE
:1016F000BECF66247724882499248394F701EA587E
:10170000FF4FFB83EA830F2EF8E72F2E3324F02DB3
:101710002E0C3F1C6982AA81BB812D913C91AA2489
:10172000BB24A394062C02C0AA0CBB1C0A94E2F7AB
:101730006501C50182239323892B09F44FC001E081
:1017400010E0082C02C0000F111F0A94E2F7C80134
:1017500082239323892B09F441C0F1012081318137
:10176000C50182239323892B09F1C8018223932386
:10177000892B09F03AC0862D869590E0E3E9F1E0E7
:10178000E80FF91F249188569E4FFC016491E22FC7
:10179000EF708E2F805541E00E945F01D1012D91A5
:1017A0003C91C50182239323892BF9F4C90180233D
:1017B0009123892B19F18981869590E0E3E9F1E085
:1017C000E80FF91F249188569E4FFC016491E22F87
:1017D000EF708E2F80554FE70E945F01D1018D91F0
:1017E0009C918C219D21892B49F0EA81FB8180818C
:1017F00091818C299D29918380830CC0C50180959E
:101800009095AA81BB812D913C91119782239323BE
:101810008D939C9321E030E0082C02C0220F331FEF
:101820000A94E2F7F1018081918182239323892B2D
:1018300051F0AA81BB818D919C911197822B932BA2
:101840008D939C930BC0C90180959095EA81FB8193
:1018500020813181822393239183808322E030E0B1
:10186000620E731E820E931E3AE06316710409F035
:1018700051CFF701EC57FF4F8081882329F0D20127
:101880009C91903128F003C0F201908108C090E053
:10189000D20111968C91803110F020E002C0F2014B
:1018A0002181993038F08FEFD70117968C939131C1
:1018B00080F413C0EDE9F1E0E90FF11DE491D701E7
:1018C0001796EC93179715961C92913180F480E04F
:1018D00013C08FEFF70185830AC0E92FF0E0EB56C4
:1018E000FE4FE491D7011596EC9380E005C0E92FF7
:1018F000F0E0E357FE4F8491253098F4222309F459
:1019000007C2E22FF0E0EF55FE4FE491EE51E82BD5
:10191000D7011696EC93169719961C922D30A0F4C9
:1019200010C0816EF70186832D3018F08FEF81870C
:101930000BC0E22FF0E0E756FE4FE491D701199675
:10194000EC93F701108608C0E22FF0E0EF56FE4F4F
:10195000E491D7011896EC93F2018281893028F046
:101960008FEFD7011A968C9308C0E6EAF1E0E80FF2
:10197000F11DE491D7011A96EC93D2011296EC91E5
:10198000E93010F420E004C0F0E0E256FE4F24916C
:10199000F2019381993010F480E005C0E6EAF1E0AD
:1019A000E90FF11D8491822BD7011C968C931C9713
:1019B000F2018381893020F08FEF1B968C9394C1C4
:1019C000E6EAF1E0E80FF11DE491D7011B96EC93F4
:1019D0008BC17F5F683209F4612F872F86958695CA
:1019E000869590E0AC01440F551F440F551F440FDE
:1019F000551F272F30E0241B350BF701E80FF91F87
:101A0000838D90E0022E02C0959587950A94E2F7A7
:101A1000382F3170848990E002C0959587952A957A
:101A2000E2F780FF42C0332309F476C1F6018081DA
:101A30008823E9F0262F26952695269530E0F70194
:101A4000E20FF31F220F331F220F331F220F331F0A
:101A5000862F90E0821B930B9D0102C0220F331F43
:101A60008A95E2F7C9012081282B20835FC0262FA9
:101A700026952695269530E0F701E20FF31F220FF9
:101A8000331F220F331F220F331F862F90E0821B3C
:101A9000930B9D0102C0220F331F8A95E2F7C90103
:101AA000809520818223808341C0332309F451C172
:101AB000F50180818823E9F0262F26952695269525
:101AC00030E0F701E20FF31F220F331F220F331F05
:101AD000220F331F862F90E0821B930B9D0102C0C3
:101AE000220F331F8A95E2F7C9012081282B20831A
:101AF0001DC0262F26952695269530E0F701E20F8A
:101B0000F31F220F331F220F331F220F331F862F85
:101B100090E0821B930B9D0102C0220F331F8A9518
:101B2000E2F7C90180952081822380836F5F683747
:101B300008F44FCF10E001E0AA24BB24A3940F2E99
:101B4000FFED8F2EF0E09F2EF02D0F2EFFE26F2E77
:101B5000F1E07F2EF02D02C01F5F0F5F1430E1F324
:101B60001830D1F31831C1F31032B1F31332A1F3AD
:101B7000153291F3163281F3173271F3183261F393
:101B8000193251F31C3241F31D3231F31E3221F36D
:101B9000812F82958F70C82EDD24812F8F702501B3
:101BA00002C0440C551C8A95E2F7C601CD96880FF9
:101BB000991FF701E80FF91F8081918184219521F8
:101BC000892B61F5C6014D96880F991FF701E80F23
:101BD000F91F8081918184219521892B09F43CC0D2
:101BE000812F90E0F401E80FF91F2491860D971DD5
:101BF000FC016491E22FEF708E2F80574FE70E9417
:101C00005F01C601CD96880F991FF701E80FF91FF4
:101C10008081918184219521892BF1F0C6014D9617
:101C2000880F991FF701E80FF91F808191818421A6
:101C30009521892B89F4812F90E0F401E80FF91F99
:101C40002491860D971DFC016491E22FEF708E2F79
:101C500080584FE70E945F01003508F47DCFF701FF
:101C6000E658FF4FD701DA968D919C91DB979183CF
:101C70008083F701E458FF4FDC968D919C91DD97AE
:101C800091838083F701E258FF4FDE968D919C91FE
:101C9000DF9791838083A058BF4FF701E05CFF4F2F
:101CA000808191818D939C93D701AE57BF4FF701EF
:101CB000EE5BFF4F808191818D939C930F900F90ED
:101CC0000F90CF91DF911F910F91FF90EF90DF90D8
:101CD000CF90BF90AF909F908F907F906F905F90CC
:101CE0004F903F902F90089570E060E01FE6A1E0D4
:101CF000B0E00F2EF5E8AF2EBB24F02DAE0CBF1CCC
:101D00000F2EF4E8CF2EDD24F02DCE0CDF1C61CE9B
:101D1000F7018683118615CE262F269526952695C2
:101D200030E0F701E20FF31F220F331F220F331FA2
:101D3000220F331F862F90E0821B930B9D0102C060
:101D4000220F331F8A95E2F7C9012081282B2083B7
:101D5000EDCE262F26952695269530E0F701E20F49
:101D6000F31F220F331F220F331F220F331F862F23
:101D700090E0821B930B9D0102C0220F331F8A95B6
:101D8000E2F7C9018095208182238083CFCEEF9234
:101D9000FF920F931F93CF93DF93CBEDD1E08C0194
:101DA000035A1F4F0F2EFDE0EF2EF2E0FF2EF02D15
:101DB000FE0184913196E4918F7080556E2FF80169
:101DC00041918F010E945F012296CE15DF0581F7B8
:101DD000DF91CF911F910F91FF90EF900895991B84
:101DE00079E004C0991F961708F0961B881F7A9512
:101DF000C9F780950895AA1BBB1B51E107C0AA1F14
:101E0000BB1FA617B70710F0A61BB70B881F991F9B
:101E10005A95A9F780959095BC01CD010895F89445
:021E2000FFCFF2
:0E1E2200047D603E7A635B5F707F7B646400CA
:00000001FF
